:020000040800F2
:10000000002800209D020008ED020008ED02000813
:10001000ED020008ED020008ED02000800000000FB
:10002000000000000000000000000000ED020008D9
:10003000ED02000800000000ED020008ED020008DB
:10004000ED020008ED020008ED020008ED020008D4
:10005000ED020008ED020008ED020008ED020008C4
:10006000ED020008ED020008ED020008ED020008B4
:10007000ED020008ED020008ED020008ED020008A4
:10008000ED020008ED020008ED020008ED02000894
:10009000ED020008ED020008ED020008ED02000884
:1000A000ED020008ED020008ED020008ED02000874
:1000B000ED020008ED020008ED020008ED02000864
:1000C000ED020008ED020008ED020008ED02000854
:1000D000ED020008ED020008ED020008ED02000844
:1000E000ED020008ED02000800000000ED0200082B
:1000F000ED020008ED020008ED020008ED02000824
:10010000ED020008ED020008ED020008ED02000813
:10011000ED020008ED020008ED020008ED02000803
:10012000ED020008ED020008ED020008ED020008F3
:1001300010B5054C237833B9044B13B10448AFF321
:1001400000800123237010BD00000020000000008B
:100150003803000808B5034B1BB103490348AFF34C
:10016000008008BD000000000400002038030008E3
:1001700080B400AF074B1B68064A43F004031360CA
:10018000044B1B68034A43F00803136000BFBD46DD
:1001900080BC70471810024080B400AF1F4B002293
:1001A0001A601F4B00221A601E4B00221A601E4B61
:1001B00000221A601B4B1B681A4A23F0300313609D
:1001C000184B1B68174A43F040031360164B1B681B
:1001D000154A43F010031360134B1B68124A23F0B7
:1001E000C00313600D4B1B680C4A23F440131360CB
:1001F0000A4B1B68094A43F4800313600B4B1B68CE
:100200000A4A43F480131360084B1B68074A23F41F
:100210004003136000BFBD4680BC70470408014026
:100220000C08014000080140000C0140040C014092
:1002300080B582B000AFFFF79BFFFFF7ADFF154B16
:100240001B6803F00203002B0CD1134B1B68124AEE
:1002500083F00203136000BF0E4B1B6803F0020320
:10026000002BF9D00B4B1B685B0B03F00103012B38
:1002700005D1094B1B68084A83F40053136000231F
:100280007B6002E07B6801337B607B68B3F5FA7FBB
:10029000F8DDD4E7080801400C0C01400D48854604
:1002A000AFF300800C480D490D4A002302E0D458FA
:1002B000C4500433C4188C42F9D30A4A0A4C0023B0
:1002C00001E013600432A242FBD300F011F8FFF703
:1002D000AFFFFEE700280020000000200000002003
:1002E00058030008000000201C000020FEE700006A
:1002F00070B500250C4E0D4CA41BA410A54209D1CD
:1003000000F01AF800250A4E0A4CA41BA410A542BE
:1003100005D170BD56F8253098470135EEE756F8FF
:10032000253098470135F2E75003000850030008D4
:100330005003000854030008F8B500BFF8BC08BC1F
:100340009E467047F8B500BFF8BC08BC9E46704793
:04035000550100084B
:04035400310100086B
:040000050800029D50
:00000001FF
